{
  "contractName": "Ownable",
  "abi": [
    {
      "inputs": [],
      "stateMutability": "nonpayable",
      "type": "constructor"
    },
    {
      "inputs": [],
      "name": "isOwner",
      "outputs": [
        {
          "internalType": "bool",
          "name": "",
          "type": "bool"
        }
      ],
      "stateMutability": "view",
      "type": "function"
    }
  ],
  "bytecode": "0x6080604052348015600f57600080fd5b50336000806101000a81548173ffffffffffffffffffffffffffffffffffffffff021916908373ffffffffffffffffffffffffffffffffffffffff16021790555060d88061005e6000396000f3fe6080604052348015600f57600080fd5b506004361060285760003560e01c80638f32d59b14602d575b600080fd5b6033604b565b60405180821515815260200191505060405180910390f35b60008060009054906101000a900473ffffffffffffffffffffffffffffffffffffffff1673ffffffffffffffffffffffffffffffffffffffff163373ffffffffffffffffffffffffffffffffffffffff161490509056fea2646970667358221220047289cf60476db483cf1d247d7d57d5386f083367b85bddbab761e9ea3e23b864736f6c63430007040033",
  "immutableReferences": {},
  "source": "pragma solidity ^0.7.4;\n\ncontract Ownable {\n    address payable _owner;\n\n    constructor() {\n        _owner = msg.sender;\n    }\n\n\n    modifier onlyOwner() {\n        require(isOwner(), \"You are not the owner\");\n        _;\n    }\n\n    function isOwner() public view returns(bool) {\n        return (msg.sender == _owner);\n    }\n}\n",
  "sourcePath": "/Users/michaelconnell/Projects/blockchain/supply_chain/_truffle/contracts/Ownable.sol",
  "compiler": {
    "name": "solc",
    "version": "0.7.4+commit.3f05b770.Emscripten.clang"
  },
  "schemaVersion": "3.3.4",
  "updatedAt": "2021-03-25T22:44:40.983Z",
  "devdoc": {
    "kind": "dev",
    "methods": {},
    "version": 1
  },
  "userdoc": {
    "kind": "user",
    "methods": {},
    "version": 1
  }
}